:020000040800F2
:10000000300500200101000891150008891500083D
:100010008D150008A1030008DF1E00080000000085
:1000200000000000000000000000000013010008B4
:10003000150100080000000017010008311B00082E
:100040001B0100081B0100081B0100081B01000820
:100050001B0100081B0100081B0100081B01000810
:100060001B0100081B0100081B0100081B01000800
:100070001B0100081B0100081B0100081B010008F0
:100080001B0100081B0100081B0100081B010008E0
:100090001B0100081B0100081B0100081B010008D0
:1000A0001B0100081B0100081B0100081B010008C0
:1000B0001B0100081B0100081B0100081B010008B0
:1000C0001B0100081B0100081B0100081B010008A0
:1000D0001B010008DB1E00081B0100081B010008B3
:1000E0001B0100081B0100081B010008DFF80CD0F1
:1000F00000F076F800480047C120000830050020D5
:100100000648804706480047FEE7FEE7FEE7FEE7B1
:10011000FEE7FEE7FEE7FEE7FEE7FEE7351B000829
:10012000ED00000840EA01039B0703D009E008C97D
:10013000121F08C0042AFAD203E011F8013B00F8AC
:10014000013B521EF9D27047D2B201E000F8012BF8
:10015000491EFBD270470022F6E710B513460A4647
:1001600004461946FFF7F0FF204610BD421C10F868
:10017000011B0029FBD1801A704710B5002200E056
:10018000521C835C8C5CA34201D1002BF8D1D8B205
:10019000E1B2401A10BD30B505460020034600E02C
:1001A0005B1C934205D2EC5CC85C201A01D1002C88
:1001B000F6D130BD30B50B46014600202022012487
:1001C00009E021FA02F59D4205D303FA02F5491B25
:1001D00004FA02F52844151EA2F10102F1DC30BD3B
:1001E000064C074D06E0E06840F0010394E8070084
:1001F00098471034AC42F6D3FFF77CFF1423000875
:1002000034230008F0B585B00024019402940394CF
:1002100004942E48816941F001018161816901F0F6
:1002200001010091816941F004018161816901F05E
:1002300004010091816941F008018161816901F047
:1002400008010091816941F010018161806900F02D
:100250001000009000201E4A1E4D32F810102B880E
:1002600019432980401CC0B20728F6D31A4E002239
:100270002988304600F0C7FB2888019001250295A7
:100280000220049001A9304600F0BEFA40F20F109F
:1002900001900294039501A9104800F0B5FAA80353
:1002A000019001A9304600F0AFFA01220C4F56032D
:1002B0003146384600F0A7FB01960295039401A948
:1002C000384600F0A1FA05B0F0BD00000010024071
:1002D0003622000810000020000C014000080140F8
:1002E0000010014070B50446124D4FF4807128464D
:1002F00000F082FBB8B1002020704FF480410E481E
:1003000000F07AFB88B1002060700A48083001686C
:1003100007208843A0700821284600F06DFB30B10B
:100320000020E07070BD0120E6E70120ECE701202D
:10033000F7E7000000080140000C0140002805D04C
:1003400000224FF40051024800F05DBB0122F8E7A3
:100350000010014070B505460024284601F034F92C
:10036000B0B100210B48012303FA01F22A4202D066
:1003700030F811201443491CC9B20729F4D30648A8
:1003800006490088A04344EA00400860012070BD8F
:10039000002070BD3622000810000020100C014023
:1003A00001F0C9BB2DE9F0478EB00446DDE916988F
:1003B0000D4692461F460026B8F1C00F03D200201A
:1003C0000EB0BDE8F087042288A13846FFF7E3FEAF
:1003D00058B1052287A13846FFF7DDFE28B1042277
:1003E00086A13846FFF7D7FE28B9287800284ED0D6
:1003F000687800284BD083A13846FFF7BEFE00285E
:100400004CD082A13846FFF7B8FE002866D081A103
:100410003846FFF7B2FE002866D07FA13846FFF7C6
:10042000ACFE002867D07EA13846FFF7A6FE002864
:1004300066D07DA13846FFF7A0FE002866D07EA1D9
:100440003846FFF79AFE002868D07FA13846FFF7AC
:1004500094FE00286AD080A13846FFF78EFE00285F
:100460006CD081A13846FFF788FE00286ED082A1AB
:100470003846FFF782FE002872D0082282A1384653
:10048000FFF789FE07F10805002871D07EE081A200
:100490004146484601F026FD002091E7E978AA7818
:1004A00068782B78CDE90A21CDE9083007220123AD
:1004B0002089CDE90532002107910490E088A188C8
:1004C000A27A6378CDE90210CDE900322378784A28
:1004D0004146484601F006FD012071E7514620469D
:1004E00001F001F9012677E052462946204601F045
:1004F00095F8064670E0204601F064F901266BE0AD
:100500002946204601F025F9064665E053460222B9
:100510000121204601F0E5F806465DE00122534640
:100520001146204601F0DDF8064655E0534600220C
:100530000121204601F0D5F806464DE0534602223F
:100540000021204601F0CDF8064645E05346012241
:100550000021204601F0C5F806463DE000E007E036
:10056000002253461146204601F0BBF8064633E010
:100570000DA9284600F0B6F840B15346BDF8342026
:100580000021204601F0F7F8064625E0082249A19F
:100590003846FFF700FE68B90DA9284600F0A2F81A
:1005A00040B15346BDF834200121204601F0E3F864
:1005B000064611E0042211A13846FFF7ECFD58B9B8
:1005C0000DA9381D00F08EF830B15246BDF8341038
:1005D000204601F0A1F806460EB139A200E03AA289
:1005E0004146484601F07EFC3046E9E652554E2031
:1005F0000000000047524950200000004A4F4720A9
:1006000000000000535441545553000050494E47D8
:100610000000000041524D0053544F5000000000B4
:1006200052454C4541534500475249502046524F90
:100630004E5420494E000000475249502046524F28
:100640004E54204F55540000475249502046524FB7
:100650004E54204F464600004752495020524541D3
:100660005220494E00000000475249502052454157
:1006700052204F55540000004752495020524541E6
:1006800052204F464600000052554E204657442007
:100690000000000045525220504859534943414CF4
:1006A0005F494E5445524C4F434B0D0A0000000029
:1006B000BC22000852554E20524556200000000032
:1006C0004F4B0D0A0000000045525220434F4D4D44
:1006D000414E445F4F525F494E5445524C4F434B3D
:1006E0000D0A000030B500220378002B02D04FF431
:1006F000803511E0002030BDA3F130040A2C01D375
:10070000002030BD02EB8202401C03EB4202303A73
:10071000AA4201D3002030BD0378002BECD10A801F
:10072000012030BD10B590F821100022022905D01B
:100730000421816380F82020012010BD01680B682E
:1007400023F00E030B6001680B6823F001030B60BC
:1007500090F84030C46B012101FA03F3636080F824
:10076000211080F82020104610BD000010B5002494
:1007700090F82110022903D00421816301243DE077
:1007800001680A6822F00E020A6001680A6822F015
:1007900001020A601A4A0168914201D1012121E057
:1007A000174A1432914201D110211BE0144A283219
:1007B000914201D1891515E0114A3C32914201D193
:1007C00089140FE00E4A5032914202D14FF4803129
:1007D00008E00B4A6432914202D14FF4801101E0EB
:1007E0004FF08071064A083A5160012180F82110CB
:1007F000002180F82010416B01B18847204610BDD0
:1008000008000240806B70472DE9F84F0024002358
:10081000DFF8C4914FF00F08A9F1040B09F1040AA5
:10082000ABF1040ED1E00127A7403A40BA4275D19E
:10083000DFF8A8C14D68A5EB0C0665452BD00DDC93
:10084000032D34D005DC35B3012D19D0022D2FD165
:100850001BE0112D16D0122D2AD119E0B6F5881FF4
:1008600019D006DCB6F5803F15D0B6F5801F1FD134
:1008700011E0B6F5001F0ED0B6F5041F18D10AE03E
:10088000CB6815E0CB681B1D12E0CB6808330FE086
:10089000CB680C330CE08B6823B1012B04D0082308
:1008A000476105E0042303E00823076100E000231B
:1008B000FF2A01D8054601E000F1040502D84FEAFD
:1008C000840603E0A4F108064FEA86062F6808FABA
:1008D00006FC27EA0C0703FA06F647EA06072F602C
:1008E0004D68ED0070D53E4DAE6946F00106AE6133
:1008F000AD6905F0010500953A4D24F0030677191E
:10090000BE68A5072D0F08FA05FC26EA0C06DFF8DD
:10091000D8C0604503D14FF0000C17E054E0DFF879
:10092000CCC0604502D14FF0010C0FE0DFF8C0C031
:10093000604502D14FF0020C08E0DFF8B8C0604516
:1009400002D14FF0030C01E04FF0040C0CFA05FC4F
:100950004CEA060CC7F808C04D68ED0205D5D9F879
:1009600000501543C9F8005004E0D9F800509543F1
:10097000C9F800504D68AD0205D5DAF800501543AE
:10098000CAF8005004E0DAF800509543CAF8005065
:100990004D68AD0305D5DBF800501543CBF800508A
:1009A00004E0DBF800509543CBF800504D68ED03B0
:1009B00005D5DEF800501543CEF8005004E0DEF80F
:1009C00000509543CEF80050641C0A6832FA04F5D2
:1009D0007FF429AFBDE8F88F080401400000111032
:1009E000001002400000014000080140000C0140DE
:1009F00000100140001401408068084201D001202D
:100A0000704700207047002A01D001617047090437
:100A100001617047014880687047000004000020B1
:100A200070B50446002C13D021684CF6CC40086009
:100A3000216845F255500860D4E9001048602168EB
:100A4000A0688860FFF7E6FF054641F23C360CE0FF
:100A5000012070BDFFF7DEFF401BB04205D92068C2
:100A6000C068800701D0032070BD2068C06880077F
:100A7000F0D121684AF6AA200860002070BD006805
:100A80004AF6AA21016000207047000002488168F0
:100A900002781144816070470400002010B50748B7
:100AA000016841F010010160032000F059F80F20A7
:100AB00000F006F800F026F8002010BD00200240EB
:100AC00070B504460D4D4FF47A712878B1FBF0F003
:100AD0000B490968B1FBF0F000F00CFB08B10120F4
:100AE00070BD102C07D200222146501E00F018F8CD
:100AF0006C60002070BD012070BD0000040000206B
:100B0000000000207047002809DB00F01F020121CF
:100B100091404009800000F1E020C0F800117047CA
:100B2000F0B40D460D4B1B68C3F30223C3F1070459
:100B3000042C00D90424191D072901D2002300E048
:100B4000DB1E012606FA04F1491E294099409E4009
:100B5000761E16403143F0BC01F0DCB90CED00E02C
:100B600000F00701054A10684FF6FF03184040EAFD
:100B70000120034908431060704700000CED00E0BD
:100B80000000FA052DE9F04704460D46002C17D069
:100B9000DFF83081D8F8000000F00700A84211D239
:100BA000D8F8000020F007002843C8F80000D8F863
:100BB000000000F00700A84204D00120BDE8F08743
:100BC0000120FBE72068404E810712D5400703D57E
:100BD000706840F4E06070602078000703D57068AA
:100BE00040F4605070607068A16820F0F000084325
:100BF00070602078C0072CD06068012806D00228D9
:100C000009D0316889070BD40120D7E731688903FF
:100C100006D40120D2E73168890101D40120CDE753
:100C2000716821F0030101437160FFF7F3FE07468D
:100C300041F2883906E0FFF7EDFEC01B484501D9B7
:100C40000320BBE77068616800F00C00B0EB810F17
:100C5000F1D1D8F8000000F00700A8420ED9D8F86A
:100C6000000020F007002843C8F80000D8F8000072
:100C700000F00700A84201D001209FE7207840073C
:100C800005D57068E16820F4E06008437060207862
:100C9000000706D57068216920F4605040EAC10061
:100CA000706000F03FF87168084AC1F30311515CAD
:100CB000C8400749086007480068FFF701FF0020A7
:100CC0007CE7000000200240001002400C220008D7
:100CD0000000002008000020014800687047000064
:100CE0000000002000B5FFF7F7FF04494968044AF7
:100CF000C1F30221515CC84000BD00000010024059
:100D00001C22000800B5FFF7E7FF04494968044AC0
:100D1000C1F3C221515CC84000BD00000010024078
:100D20001C2200080E4B59680E4801F00C02042AE0
:100D300011D0082A0FD10C48C1F38342805CC9034B
:100D40000AD55968084AC1F34041921E515C054AD0
:100D50005043B0FBF1F0704704494843704700002E
:100D60000010024000127A002622000800093D000F
:100D70002DE9F84F0446002C0ED02078D94DC0073D
:100D80005ED06868C0F3810001280BD06868C0F3AA
:100D90008100022803D00CE00120BDE8F88F6868CC
:100DA000C00306D5286880034AD56068A8BB012027
:100DB000F3E76068B0F5803F11D0A8B1B0F5A02F7F
:100DC0001BD0286820F480302860286820F4802018
:100DD0002860606830B3FFF71DFE06461EE02868F5
:100DE00040F480302860F4E7286820F480302860E0
:100DF000286820F480202860EBE7286840F48020F1
:100E00002860286840F480302860E2E7FFF702FE9F
:100E1000801B642802D90320BFE711E02868800303
:100E2000F4D50DE0FFF7F6FD064606E0FFF7F2FD0C
:100E3000801B642801D90320AFE728688003F5D41C
:100E40002078DFF8A48280074FF0010A4FF00009F4
:100E500045D5686810F00C0F07D06868C0F38100B2
:100E6000022812D16868C0030FD42868800704D50F
:100E70002069012801D001208FE72868616920F0EE
:100E8000F80040EAC100286029E02069B8B1C8F83C
:100E900000A0FFF7BFFD064606E0FFF7BBFD801B85
:100EA000022801D9032078E728688007F5D528684B
:100EB000616920F0F80040EAC10028600FE0C8F83E
:100EC0000090FFF7A7FD064606E0FFF7A3FD801B95
:100ED000022801D9032060E728688007F5D420782C
:100EE000000726D58148A16999B1C0F800A0FFF795
:100EF00091FD064606E0FFF78DFD801B022801D913
:100F000003204AE7686A8007F5D5012000F074FBEA
:100F10000FE0C0F80090FFF77DFD064606E0FFF702
:100F200079FD801B022801D9032036E7686A800713
:100F3000F5D42078400773D50026E869C00008D4AE
:100F4000E86940F08050E861E86900F08050009066
:100F50000126DFF89CB1DBF80000C00514D4DBF8F3
:100F6000000040F48070CBF80000FFF753FD074607
:100F700006E0FFF74FFDC01B642801D903200CE7F2
:100F8000DBF80000C005F4D5E068012812D0B0B14C
:100F900005281DD0286A20F001002862286A20F068
:100FA00004002862E06841F2883B28B3FFF732FD75
:100FB00007461DE0286A40F001002862F2E7286A2F
:100FC00020F001002862286A20F004002862E9E786
:100FD000286A40F004002862286A40F00100286274
:100FE000E0E7FFF717FDC01B584501D90320D4E601
:100FF000286A8007F5D50DE0FFF70CFD074606E0EF
:10100000FFF708FDC01B584501D90320C5E6286A33
:101010008007F5D4012E03D1E86920F08050E86103
:10102000E069A0B36968C1F38101022946D00228B2
:1010300005D0C8F86090FFF7EDFC04463AE0C8F828
:101040006090FFF7E7FC064606E0FFF7E3FC801B35
:10105000022801D90320A0E628688001F5D4206A7F
:10106000B0F5803F05D16868A16820F400300843DE
:101070006860D4E908010843696821F474110843E1
:101080006860C8F860A0FFF7C5FC044607E026E0EA
:10109000FFF7C0FC001B022801D903207DE6286869
:1010A0008001F5D51BE0FFF7B5FC001B022801D934
:1010B000032072E628688001F5D410E001280CD0E6
:1010C0006868226A00F48031914204D1616A00F4B8
:1010D0007010884203D001205FE601205DE6002009
:1010E0005BE60000001002400000424280044242E1
:1010F0000070004010B5401EB0F1807F01D3012088
:1011000010BD4FF0E02460610F21601700F002FF76
:101110000020A06107202061002010BD704770B53D
:10112000044620680C3050E8001F21F4907140E81C
:101130000012002AF5D12068143050E8001F21F079
:10114000010140E80012002AF5D1206B012809D1E5
:1011500020680C3050E8001F21F0100140E8001218
:10116000002AF5D1206840694FF00005400615D5EA
:101170002068143050E8001F21F0400140E80012C0
:10118000002AF5D1E06B48B14563E06BFFF7CAFA7E
:1011900020B1E06BFFF736FB202806D0E585202044
:1011A00084F842002563002070BD10206064032095
:1011B00070BD000070B50646084C0125E57030464C
:1011C000FFF7ADFF002807D101222146304600F08D
:1011D00053F9002800D0E57070BD00001200002017
:1011E000F8B5044622681068D168536900F00F060C
:1011F000002E08D1850606D58D0604D52046BDE80B
:10120000F84000F025BD0025002E66D003F0010651
:1012100001F49077374360D0C20705D0CA0503D5E3
:10122000626C42F001026264420705D5DA0703D01E
:10123000626C42F002026264820705D5DA0703D0CD
:10124000626C42F004026264020707D501F02002DA
:10125000324303D0626C42F008026264626C002A7E
:1012600031D0800604D5880602D5204600F0F0FC77
:1012700020684069C0F38010616C090700D438B35E
:10128000204600F0B1FC2068406940061CD520686B
:10129000143050E8001F21F0400140E80012002AFD
:1012A000F5D1E06B60B159494163E06BFFF75EFA3D
:1012B000002808D0E06B416B01B0BDE8F040084762
:1012C0002046FFF777FFF8BD2046FFF773FFF8BD14
:1012D0002046FFF76FFF6564F8BD236B012B7DD1BE
:1012E000C3067BD5CB067ED5106850680090506948
:1012F0004FF0200340064FF0020643D5E16B08682B
:10130000406880B20028E7D0A28D8242E4D9E0850F
:10131000886920282DD020680C3050E8001F21F467
:10132000807140E80012002AF5D12068143050E89E
:10133000001F21F0010140E80012002AF5D12068C9
:10134000143050E8001F21F0400140E80012002A4C
:10135000F5D184F84230256320680C3050E8001F36
:1013600021F0100140E80012002AF5D1E06BFFF7F0
:10137000D9F96663A08DE18D401A81B22046FFF74E
:10138000CDFEF8BDA08DE18D401A81B2E08D002820
:10139000F7D00029F5D020680C3050E8002F22F457
:1013A000907240E80027002FF5D12068143050E8F3
:1013B000002F22F0010240E80027002FF5D184F829
:1013C0004230256320680C3050E8002F22F01002D4
:1013D00040E80023002BF5D1666300E003E02046DF
:1013E000FFF79CFEF8BD020606D50A0604D5204686
:1013F000BDE8F84000F008BD4006F3D54806F1D539
:101400002046BDE8F84000F016BC0000D91B0008DB
:1014100070B50446002C04D094F84100002510B1AA
:1014200006E0012070BD84F84050204600F023F80B
:10143000242084F841002068C16821F40051C16073
:10144000204600F069FC2068016921F490410161A7
:101450002068416921F02A0141612068C16841F496
:101460000051C1606564202084F8410084F8420086
:101470006563002070BD704790F84230202B01D08A
:101480000220704721B11AB10023036300F0A0BC11
:101490000120704770B50E4C6178491C01F07F0146
:1014A0000C4A904212D1A2780125914201D1E570F7
:1014B00005E0084B2278667848339A55617001221E
:1014C0000349FFF7D9FF002800D0E57070BD000088
:1014D00012000020240000202DE9F84304460E46A7
:1014E00015461F4694F84100202802D00220BDE88E
:1014F000F8837EB175B100206064212084F841003A
:10150000FFF788FA8146A584E584A068B0F5805F7E
:1015100002D003E00120EAE7206920B13546002629
:101520004FF0200815E00025FAE74B460022802105
:101530002046009700F097FC18B184F84180032002
:10154000D5E7ADB1216815F8010B4860E08C401E6D
:10155000E084E08C0028E8D14B4600224021204660
:10156000009700F080FC50B184F841800320BEE772
:1015700036F8020B2168C0F308004860E6E784F8FB
:1015800041800020B3E7704700F0D5BA00F0D3BA2D
:1015900000F0D1BA00B50721002000F024F803467E
:1015A0000721012000F01FF8184300BD014600206C
:1015B000CA0700D001208A0701D540F0080049077A
:1015C00001D540F020007047C10901D000207047CC
:1015D000C143890705D0C0F34110032801D0012081
:1015E00070470020704702460020C90701D00AB1A9
:1015F000102070470420704708B507494FF4FA528D
:101600000968B1FBF2F14143009100BF0098411E0F
:101610000091FAD208BD00000000002000207047B1
:101620000146054A887A12F830008978012901D1EB
:1016300000F085B8704700004C2200082DE9F04109
:1016400004460F46A07A224901EBC000467885780F
:10165000C178E172A178012905D186784578C078F2
:1016600000F06DF8E0720EB1072100E000210020CB
:10167000FFF7B9FF06460DB1072100E00021012068
:10168000FFF7B1FF46EA0005A07A78B101280DD036
:1016900003280BD0042809D0072807D0082805D034
:1016A0000A2803D00B2801D00D2804D1FFF772FFC0
:1016B000A18800EA01052046FFF7B2FFA178FFF7F5
:1016C00075FF2843A080276100202073BDE8F081CA
:1016D0004C2200080278042A02D0417004210170D3
:1016E0007047002070478161704770B504460D4611
:1016F00024212046FEF72FFDE561A56170BD00782D
:10170000012807D0022805D0052803D0062801D0DB
:10171000002070470120704770B504460D461646FC
:101720002078012809D12846FFF74EFF28B1A5806F
:10173000052020702661012070BD002070BD00F0E2
:10174000020100F0010241EA8201C0F38000084377
:101750007047097800290CD10178022909D00529A0
:1017600007D0062905D00021818001704170012039
:1017700070470020704770B50478012C06D0032C08
:1017800011D1047904F06B04292C0CD1846941F245
:1017900088351C1BAC4206D22AB1B2F57A7F02D83A
:1017A00019B1012901D0002070BD81700021C180D4
:1017B000028181724361022101701946FFF73EFFE9
:1017C000012070BD10B504462046FFF798FF0028A1
:1017D00001D00320207010BD2DE9F04104460E46D3
:1017E0001546E0692F1AE5612046FFF788FF0028BB
:1017F00047D0707848B1307868B1642F11D920464D
:10180000BDE8F0410721FFF765BF2046BDE8F04184
:101810000121FFF75FBF2046BDE8F0410221FFF73D
:1018200059BFA06941F28831281A884205D3204661
:10183000BDE8F0410321FFF74DBF2078062811D005
:1018400000274FF00108052813D0022819D160693C
:101850002849281A884216D32046BDE8F0410621BF
:10186000FFF738BF2A4631462046BDE8F04100F078
:1018700045B82069281AB0F5FA6F02D3A78084F81A
:101880000080BDE8F0812046FFF7CAFEB1788843AA
:101890000ED027732069291AA07A174A02EBC002DA
:1018A00052688A42EDD80D2809D0042814D018E0D7
:1018B000207B0028EED184F80C802562EAE7E088DE
:1018C000401C80B2E0802189884202D3032020702E
:1018D000D7E70420A07206E0E18811B10620A072CB
:1018E00001E0401CA07229462046BDE8F041FFF708
:1018F000A5BE0000C0D401004C220008F0B5C37A98
:10190000847A012C05D04FF49667457B25B160267B
:1019100003E04FF4FA77F8E70326022C0CD190F895
:101920000EC0BCF1010F07D115B14FF0040C01E05E
:101930004FF0010C4CEA030389784FF0000C8B4305
:101940004FF001010ED080F80CC00369D31ABB42DE
:1019500007D36CB1012C10D003210170026180F813
:101960000CC0F0BD037B002BEFD101730262ECE7EA
:101970008388B34383808172F0E7817B012902D0A1
:10198000022908D00EE083880DB1202100E001215A
:101990000B43838006E083880DB1402100E00221E3
:1019A0000B43838002218172D8E7000030B585B0F7
:1019B000002403942148816941F480418161806958
:1019C00000F4804000904FF40070019002200290DB
:1019D000032004901A4D01A92846FEF715FF29158A
:1019E000019102940121039101A92846FEF70CFF01
:1019F0001548144901604FF4E13141608460C460CE
:101A000004610C2141618461C461FFF701FD10B1E3
:101A1000002005B030BD002202212520FFF780F80C
:101A20002520FFF770F8012208490748FFF724FD39
:101A300008B10020EDE70120EBE7000000100240B4
:101A4000000801400038014024000020120000205E
:101A50000148FFF7C5BB0000240000202DE9F0413C
:101A6000002200251D4E1E4C30E01C49A378803911
:101A7000C95CA3785B1C03F07F03A3700D290ED013
:101A80000A290CD0A1F120035F2B02D223793F2B2E
:101A900002D301236371E37063798BB114E0617940
:101AA00011B1657125710FE0217969B12279B554C1
:101AB000521C0A49FEF736FB25710120BDE8F08172
:101AC00023795F1C2771F154521CD2B2202A03D211
:101AD000A17863789942C8D10020EFE7EC0000209C
:101AE0001200002010B504462046FEF73FFB82B2EC
:101AF0001E2321460348FFF7EFFC08B1002010BD6C
:101B0000012010BD2400002010B5EFF3108272B642
:101B10000649C8780023CB70002804D04C788C701C
:101B20000B7101234B7182F3108810BD120000204D
:101B3000FEF7ACBF704772B6FEE7000010B5044870
:101B4000FEF79DFF002801D0FFF7F5FF10BD000054
:101B50001800002030B58FB0282105A8FEF7FBFA49
:101B600014216846FEF7F7FA022505950120099031
:101B700010200A900C9500240D944FF460100E90E4
:101B800005A8FFF7F5F810B100200FB030BD0F2009
:101B90000090019502944FF4806003900494022118
:101BA0006846FEF7EFFF08B10020EEE70120ECE702
:101BB00010B50848064901600421416040F2E14146
:101BC0008160FEF72DFF08B1002010BD012010BD7F
:101BD000003000401800002010B5406A0021C18587
:101BE000C184FFF7E7FA10BD01680C3151E8002FFE
:101BF00022F4907241E80023002BF5D101681431E2
:101C000051E8002F22F0010241E80023002BF5D11A
:101C1000016B012909D101680C3151E8002F22F034
:101C2000100241E80023002BF5D1202180F842105A
:101C300000210163704710B50168CA6822F04002B4
:101C4000CA60202180F84110FFF79DFC002010BDE4
:101C500008B590F84210222901D0022008BD826800
:101C60004FF480539A4201D1016921B1816A9A42AD
:101C70001DD052B10BE0816A02685268C2F30802BB
:101C80000A80816A891C816209E002697AB102686E
:101C9000526802F07F020A70816A491C8162C18D1C
:101CA000491E0904090CC18505D0002008BD026841
:101CB00052680A70F0E70168CA6822F02002CA6020
:101CC0000168CA6822F48072CA6001684A6922F019
:101CD00001024A61202180F8421000214163026B19
:101CE000012A03D0FFF7D6FB002008BD016301687D
:101CF0000C3151E8002F22F0100241E80023002BA4
:101D0000F5D101680A68D20602D50A6849680091CF
:101D1000818DFFF703FAE7E770B504462068016993
:101D2000E26821F4405111430161A1682069014337
:101D3000606901432068C26841F20C639A430A4318
:101D4000C26020684169A26921F440711143416178
:101D50001E492068884202D1FEF7D4FF01E0FEF759
:101D6000C1FF00EBC00101EB001061686422890033
:101D7000B0FBF1F3B3FBF2F36FF018067343B0FB63
:101D8000F1F5B0FBF1F605EB8305322303EB051506
:101D9000B5FBF2F5B6FBF2F605F0F00505EB06151E
:101DA000B0FBF1F6B0FBF1F0B0FBF2F06FF0180110
:101DB000484306EB800003EB0010B0FBF2F0216813
:101DC00000F00F002844886070BD0000003801401A
:101DD00081628285C28500214164222180F84210FF
:101DE0000169002904D00168CA6842F48072CA609F
:101DF00001684A6942F001024A610068C16841F025
:101E00002001C1600020704790F84110212901D0C5
:101E1000022070478168B1F5805F01D1016961B12D
:101E2000016A4A1C0262026809785160C18C491E2D
:101E30000904090CC1840AD013E0016A0268098808
:101E4000C1F308015160016A891C0162EEE7016873
:101E5000CA6822F08002CA600068C16841F040018F
:101E6000C160002070472DE9F84304460D4617462F
:101E70009846089E25E0701C23D0FEF7CBFDA0EB12
:101E80000800B0421BD8D6B12068C168490718D5F0
:101E9000802D16D0402D14D00168C943090710D4F5
:101EA000002521680968406800902046FFF79CFEE5
:101EB0000820606484F840500120BDE8F8830320C6
:101EC000FBE72068006835EA000004D00020B84233
:101ED000D1D00020F1E70120F9E7FFF7B9BDFFF706
:101EE0002ABE00000FB41CB50246002007AC002932
:101EF0000BD0491ECDE90021054B6A4621460698C4
:101F000000F028F8009A002111701CBC5DF814FB49
:101F1000A92000080907090E002804DB00F1E020D1
:101F200080F80014704700F00F0000F1E02080F806
:101F3000141D704702E008C8121F08C1002AFAD118
:101F400070477047002001E001C1121F002AFBD139
:101F5000704700002DE9FF4F89B09B4604460025DD
:101F600006E025280BD05A460B999047641C6D1C3F
:101F700020780028F5D10DB02846BDE8F08F002765
:101F8000B8460122474900E0074314F8013F203BCF
:101F900002FA03F00842F7D120782E2819D114F85C
:101FA000010F47F004072A280ED06FF02F02207887
:101FB000A0F1300109290CD808EB880102EB41019E
:101FC00000EB0108641CF2E70A98641C50F8048BCB
:101FD0000A9020780028CED0642808D0692806D03E
:101FE00075281ED05A460B9990476D1C58E00A99E7
:101FF0004FF00A0901C90A91002802DA40422D2156
:1020000002E0390504D52B218DF82010012103E0D1
:10201000F90704D02021F7E78A4608AE0DE0002139
:10202000FAE70A994FF00A0901C90A91F7E7494608
:10203000FEF7C0F8303106F8011D0028F7D1ADEBEE
:10204000060000F12009780701D44FF00108C845C7
:1020500002DDA8EB090000E000208046002706E032
:1020600008A85A46C05D0B9990476D1C7F1C5745C8
:10207000F6DB04E030205A460B9990476D1CB8F10E
:102080000001A8F10108F5DC05E016F8010B5A463D
:102090000B9990476D1CB9F10001A9F10109F4DC1D
:1020A000641C65E7092801004A68002A06D00A680E
:1020B000531C0B6010704868401E48607047000059
:1020C000CCB00024FEF7EAFC08B1FFF734FDFEF7C0
:1020D00099F8FFF73FFD28B1FFF768FC10B1FFF753
:1020E00067FD08B9FFF727FDFEF794FC014643A8FA
:1020F000FFF7FBFA36A0FFF7F5FC002852D10821C4
:1021000043A8FFF7E7FA4DE0082143A8FFF7E2FAFA
:102110000025D5B1C02002A9CDE9001032AB32466E
:1021200042A943A8FEF73EF936A132A8FEF725F8EA
:1021300008B9ADF8104142A8FEF7D4F8FEF76AFCE2
:10214000024642A943A8FFF747FB9DF80C0104286B
:1021500001D1ADF81041BDF81001FEF7FBF838B120
:10216000BDF810416DB102A8FFF7BCFC28B108E032
:10217000082143A8FFF7AEFAF4E7082143A8FFF7C8
:10218000A9FA9DF80C01022820D0FEF743FC4FF479
:10219000FA71B0FBF1F000F00100FEF7CFF8FFF7A5
:1021A000CDFC30BFFEF736FC064642A8FEF79AF893
:1021B000324642A943A8FFF70FFB32A8FFF74EFCB7
:1021C0000546FFF7A1FC0028A3D09DE70120E4E726
:1021D000574F524D2048414C2052454144593B20D5
:1021E00053544154555320464F5220434F4E464975
:1021F000473B2052454C454153452056454E54538C
:102200000D0A000053544F50000000000000000071
:102210000000000001020304060708090000000096
:1022200001020304010202030405060708090A0B60
:102230000C0D0E0F10100100020020004000800065
:102240000001000200040008001000200700000048
:10225000B004000006000006F401000006010006BC
:10226000D007000007010006B004000003010003CE
:10227000F401000003010103D00700000301000383
:10228000D007000007010003B004000005010005AD
:10229000F401000005000105D0070000070001055A
:1022A000B004000006000106F4010000060101066A
:1022B000D007000007010106B00400005354415448
:1022C000453D2575204641554C543D2575205048C7
:1022D0004153453D2575204D41534B3D25752043C8
:1022E00059434C45533D25752F2575204C4F434B85
:1022F0003D25752043483D25752046423D257520E6
:10230000494E3D25752C25752C25752C25750D0AF6
:102310000000000034230008000000201800000026
:10232000341F00084C230008180000201805000086
:10233000441F000800127A00010000001000000095
:0C23400000000000000000000000000091
:04000005080000ED02
:00000001FF
